:100000000C942A000C94DE070C9411080C944408FC
:100010000C9447000C9447000C9447000C94470044
:100020000C9447000C9447000C9447000C94470034
:100030000C9447000C9447000C9447000C94470024
:100040000C946F0D0C9447000C9447000C944700DF
:100050000C94470011241FBECFE5D8E0DEBFCDBF12
:1000600010E0A0E6B0E0E8E3FCE202C005900D92EB
:10007000A43BB107D9F710E0A4EBB0E001C01D929A
:10008000A73EB107E1F70E94CD100C941A160C940C
:100090000000EF92FF920F931F937B018C0120E0F1
:1000A00030E040E05FE40E94490388238CF0C801FF
:1000B000B70120E030E040E05FE40E94C1010E940F
:1000C000A9039B01AC01205030404040504806C07D
:1000D000C801B7010E94A9039B01AC01B901CA0183
:1000E0001F910F91FF90EF900895A0E0B0E0EBE733
:1000F000F0E00C94E315DC012B01FA019C919230A5
:1001000008F439C1EB018881823008F433C194309E
:1001100069F4843009F02FC111969C91119789815F
:10012000981709F428C1ACEAB0E025C1843009F47D
:1001300021C18230A9F4923009F01DC19A01AD01AC
:1001400088E0EA010990AE01E90109929E0181501F
:10015000C1F7E201898111969C918923818308C1AD
:10016000923009F407C112962D903C901397EB0141
:100170008A819B811496AD90BD90CD90DC901797AD
:10018000EC80FD800E811F819101281B390BB90184
:1001900037FF04C066277727621B730B6032710537
:1001A0000CF061C0121613066CF537014801062EDB
:1001B00004C096948794779467940A94D2F721E0C8
:1001C00030E040E050E004C0220F331F441F551FB1
:1001D0006A95D2F721503040404050402E213F21B7
:1001E00040235123211531054105510521F021E01E
:1001F00030E040E050E079018A01E628F72808293C
:1002000019293CC0232BD1F1260E371E350146019A
:10021000062E04C096948794779467940A94D2F734
:1002200021E030E040E050E004C0220F331F441FC3
:10023000551F6A95D2F721503040404050402A2146
:100240003B214C215D21211531054105510521F04E
:1002500021E030E040E050E059016A01A628B728CB
:10026000C828D9280BC0821593052CF01C01AA249C
:10027000BB24650103C0EE24FF24870111969C91E5
:10028000D20111968C91981709F445C0992339F041
:10029000A80197012A193B094C095D0906C0A6016E
:1002A00095012E193F09400B510B57FD08C01182D3
:1002B0003382228224833583468357831DC081E0A5
:1002C00081833382228288279927DC01821B930B4A
:1002D000A40BB50B84839583A683B7830DC0220F2F
:1002E000331F441F551F24833583468357838281E0
:1002F000938101979383828324813581468157813D
:10030000DA01C9010197A109B1098F5F9F4FAF4F72
:10031000BF4328F30BC0918333822282EA0CFB1C7B
:100320000C1D1D1DE482F5820683178383E0808304
:10033000248135814681578157FF1AC0C901AA27F8
:1003400097FDA095BA2F81709070A070B0705695EF
:10035000479537952795822B932BA42BB52B848318
:100360009583A683B7838281938101969383828349
:10037000DF0101C0D201CD01CDB7DEB7E2E10C94BF
:10038000FF15A0E2B0E0E7ECF1E00C94EF15698313
:100390007A838B839C832D833E834F835887E9E048
:1003A000EE2EF12CEC0EFD1ECE010196B7010E943F
:1003B000D2048E010F5E1F4FCE010596B8010E9438
:1003C000D2048A8991E089278A8BC701B801AE01DE
:1003D000475E5F4F0E9475000E94FD03A096E6E015
:1003E0000C940B16A0E2B0E0E8EFF1E00C94EF15EE
:1003F00069837A838B839C832D833E834F835887C5
:10040000F9E0EF2EF12CEC0EFD1ECE010196B701A6
:100410000E94D2048E010F5E1F4FCE010596B801D7
:100420000E94D204C701B801AE01475E5F4F0E942F
:1004300075000E94FD03A096E6E00C940B16A0E266
:10044000B0E0E5E2F2E00C94E31569837A838B83F4
:100450009C832D833E834F835887CE010196BE0136
:10046000675F7F4F0E94D204CE010596BE016F5E8A
:100470007F4F0E94D2049985923088F0898982301A
:10048000C8F0943019F4823051F404C0843029F457
:10049000923081F48CEA90E0C6C0923049F420E0BA
:1004A0009A858A89981321E02A87CE010996BBC0D4
:1004B000823049F420E09A858A89981321E02A8BBA
:1004C000CE014196B0C02D843E844F8458886D88FB
:1004D0007E888F88988CEE24FF248701AA24BB2471
:1004E000650140E050E060E070E0E0E0F0E0C10174
:1004F00081709070892BE9F0E60CF71C081D191D1E
:100500009A01AB012A0D3B1D4C1D5D1D80E090E062
:10051000A0E0B0E0E614F7040805190520F481E036
:1005200090E0A0E0B0E0BA01A901480F591F6A1F8E
:100530007B1FAA0CBB1CCC1CDD1C97FE08C081E0F5
:1005400090E0A0E0B0E0A82AB92ACA2ADB2A3196B6
:10055000E032F10549F0660C771C881C991C569412
:10056000479437942794C3CFFA85EA892B893C892D
:100570008B859C85280F391F2E5F3F4F17C0CA01FE
:1005800081709070892B61F016950795F794E79428
:1005900080E090E0A0E0B0E8E82AF92A0A2B1B2BC3
:1005A00076956795579547952F5F3F4F77FDE7CF36
:1005B0000CC0440F551F661F771F17FD4160EE0CDE
:1005C000FF1C001F111F21503040403090E05907A0
:1005D00090E0690790E4790760F32B8F3C8FDB0193
:1005E000CA018F779070A070B07080349105A1051A
:1005F000B10561F447FD0AC0E114F10401051105DC
:1006000029F0405C5F4F6F4F7F4F40781A8EFE1786
:1006100011F081E08A8F4D8F5E8F6F8F78A383E01A
:10062000898FCE0149960E94FD03A096E2E10C94C9
:10063000FF15A8E1B0E0EFE1F3E00C94EF1569835A
:100640007A838B839C832D833E834F83588789E0F5
:10065000E82EF12CEC0EFD1ECE010196B7010E9492
:10066000D2048E010F5E1F4FCE010596B8010E9485
:10067000D2048985823040F08989823028F0C70110
:10068000B8010E944A0501C08FEF6896E6E00C941D
:100690000B16A8E1B0E0EFE4F3E00C94EF156983EA
:1006A0007A838B839C832D833E834F83588789E095
:1006B000E82EF12CEC0EFD1ECE010196B7010E9432
:1006C000D2048E010F5E1F4FCE010596B8010E9425
:1006D000D2048985823040F08989823028F0C701B0
:1006E000B8010E944A0501C08FEF6896E6E00C94BD
:1006F0000B16A8E1B0E0EFE7F3E00C94EF15698387
:100700007A838B839C832D833E834F83588789E034
:10071000E82EF12CEC0EFD1ECE010196B7010E94D1
:10072000D2048E010F5E1F4FCE010596B8010E94C4
:10073000D2048985823040F08989823028F0C7014F
:10074000B8010E944A0501C081E06896E6E00C9479
:100750000B16ACE0B0E0EFEAF3E00C94F31569831C
:100760007A838B839C83CE010196BE016B5F7F4FA2
:100770000E94D2048D81823061F1823050F1843048
:1007800021F48E81882351F12EC02F81388537FDC9
:1007900020C06E812F3131051CF06623F9F023C093
:1007A0008EE190E0821B930B29853A854B855C8511
:1007B00004C056954795379527958A95D2F76623B5
:1007C000B1F050954095309521953F4F4F4F5F4F79
:1007D0000EC020E030E040E050E009C02FEF3FEFD6
:1007E0004FEF5FE704C020E030E040E050E8B9019F
:1007F000CA012C96E2E00C940F16DF92EF92FF9262
:100800000F931F93FC01E480F58006811781D1804E
:100810008081823048F480E090E0A0E1B0E0E82AF6
:10082000F92A0A2B1B2BA5C0843009F49FC0823003
:1008300021F4EE24FF24870105C0E114F104010531
:10084000110519F4E0E0F0E096C0628173819FEF3A
:10085000623879070CF05BC022E83FEF261B370BAC
:100860002A3131052CF020E030E040E050E02AC091
:10087000B801A701022E04C0769567955795479554
:100880000A94D2F781E090E0A0E0B0E004C0880FC5
:10089000991FAA1FBB1F2A95D2F70197A109B10979
:1008A0008E219F21A023B1230097A105B10521F03E
:1008B00081E090E0A0E0B0E09A01AB01282B392B59
:1008C0004A2B5B2BDA01C9018F779070A070B07052
:1008D00080349105A105B10539F427FF09C0205CDA
:1008E0003F4F4F4F5F4F04C0215C3F4F4F4F5F4F13
:1008F000E0E0F0E02030A0E03A07A0E04A07A0E402
:100900005A0710F0E1E0F0E079018A0127C0603871
:10091000710564F5FB01E158FF4FD801C7018F77DE
:100920009070A070B07080349105A105B10539F4C4
:10093000E7FE0DC080E490E0A0E0B0E004C08FE3EB
:1009400090E0A0E0B0E0E80EF91E0A1F1B1F17FFA1
:1009500005C016950795F794E794319687E01695AC
:100960000795F794E7948A95D1F705C0EE24FF2404
:100970008701EFEFF0E06E2F679566276795902F60
:100980009F77D794DD24D7948E2F8695492F462BB9
:10099000582F5D29B701CA011F910F91FF90EF9069
:1009A000DF900895FC01DB01408151812281622F9B
:1009B0006F7770E0221F2227221F9381892F880FD3
:1009C000822B282F30E0991F9927991F11969C930D
:1009D000119721153105A9F54115510561057105DD
:1009E00011F482E037C082E89FEF13969C938E93B8
:1009F00012979A01AB0167E0220F331F441F551F66
:100A00006A95D1F783E08C930DC0220F331F441FEA
:100A1000551F12968D919C911397019713969C9355
:100A20008E931297203080E0380780E0480780E4FA
:100A3000580758F314962D933D934D935C93179755
:100A400008952F3F310579F4411551056105710570
:100A500019F484E08C93089564FF03C081E08C93C3
:100A600012C01C9210C02F57304013963C932E9307
:100A7000129783E08C9387E0440F551F661F771F02
:100A80008A95D1F7706414964D935D936D937C9322
:100A9000179708951F93DC01FB019C91923008F495
:100AA00047C08081823008F443C0943051F41196DD
:100AB0001C91843099F58181682F70E0611B710968
:100AC0003FC0843021F0923031F48230B9F181811D
:100AD000882389F12DC011961C9111978230F1F075
:100AE00081811817D9F412962D913C911397828128
:100AF00093818217930794F028173907BCF0149656
:100B00008D919D910D90BC91A02D248135814681C0
:100B10005781281739074A075B0718F4112341F05A
:100B20000AC082179307A407B50740F4112319F0F0
:100B300061E070E005C06FEF7FEF02C060E070E041
:100B4000CB011F910895DF93CF93CDB7DEB7EAE3D2
:100B5000F0E01082E7E3F0E080EE8083E4E3F0E091
:100B60008FEF8083E1E3F0E083E18083EBE3F0E06B
:100B70001082E8E3F0E084E08083E5E3F0E01082B7
:100B8000E2E3F0E08FE18083CF91DF910895DF937E
:100B9000CF93CDB7DEB7AFE5B0E0EFE5F0E0808111
:100BA00080688C93CF91DF910895DF93CF93CDB779
:100BB000DEB7AFE5B0E0EFE5F0E080818F778C93B2
:100BC000CF91DF910895DF93CF93CDB7DEB7A5E541
:100BD000B0E0E5E5F0E080818E7F8C93A5E5B0E0A4
:100BE000E5E5F0E0808182608C93ABE5B0E0EBE579
:100BF000F0E0808180648C93CF91DF910895DF9342
:100C0000CF93CDB7DEB7A5E5B0E0E5E5F0E08081B4
:100C10008B7F8C93A5E5B0E0E5E5F0E0808188600E
:100C20008C93ABE5B0E0EBE5F0E0808180688C93DD
:100C3000CF91DF910895DF93CF93CDB7DEB7A4E5D1
:100C4000B0E0E4E5F0E080818F7B8C93ABE5B0E031
:100C5000EBE5F0E0808180628C93CF91DF91089585
:100C6000DF93CF93CDB7DEB72B970FB6F894DEBFE7
:100C70000FBECDBF8A836B8319828A81282F30E013
:100C80003B872A878A859B858130910509F46AC054
:100C90002A853B852230310509F4C3C08A859B85AE
:100CA000009709F0E0C08B81282F30E03987288732
:100CB000888599858230910529F1288539852330E9
:100CC000310534F4888599858130910561F047C0FC
:100CD000288539852330310521F18885998584302F
:100CE000910571F13CC0A5E5B0E0E5E5F0E080815B
:100CF0008E7F8C93A5E5B0E0E5E5F0E080818D7F07
:100D00008C93B3C0A5E5B0E0E5E5F0E080818160BB
:100D10008C93A5E5B0E0E5E5F0E080818D7F8C93D4
:100D2000A4C0A5E5B0E0E5E5F0E080818E7F8C937E
:100D3000A5E5B0E0E5E5F0E0808182608C9395C0A8
:100D4000A5E5B0E0E5E5F0E0808181608C93A5E564
:100D5000B0E0E5E5F0E0808182608C9386C081E0C0
:100D6000898383C08B81282F30E03F832E838E813F
:100D70009F818230910529F12E813F8123303105F9
:100D800034F48E819F818130910561F047C02E81BE
:100D90003F812330310521F18E819F81843091057F
:100DA00071F13CC0A5E5B0E0E5E5F0E080818B7F26
:100DB0008C93A5E5B0E0E5E5F0E08081877F8C933A
:100DC00054C0A5E5B0E0E5E5F0E0808184608C9357
:100DD000A5E5B0E0E5E5F0E08081877F8C9345C034
:100DE000A5E5B0E0E5E5F0E080818B7F8C93A5E59B
:100DF000B0E0E5E5F0E0808188608C9336C0A5E541
:100E0000B0E0E5E5F0E0808184608C93A5E5B0E09A
:100E1000E5E5F0E0808188608C9327C081E08983DC
:100E200024C08B81282F30E03D832C838C819D81D1
:100E30008330910569F02C813D812430310581F4A6
:100E4000A5E5B0E0E5E5F0E0808180648C930DC01D
:100E5000A5E5B0E0E5E5F0E080818F7B8C9305C0EF
:100E600081E0898302C081E0898389812B960FB656
:100E7000F894DEBF0FBECDBFCF91DF910895DF9311
:100E8000CF9300D000D0CDB7DEB78A8319828A8194
:100E9000282F30E03C832B838B819C81813091050E
:100EA00089F02B813C8122303105A1F08B819C811E
:100EB0000097C1F4ABE5B0E0EBE5F0E08081806441
:100EC0008C9312C0ABE5B0E0EBE5F0E08081806888
:100ED0008C930AC0ABE5B0E0EBE5F0E08081806286
:100EE0008C9302C081E0898389810F900F900F90CD
:100EF0000F90CF91DF910895DF93CF9300D000D072
:100F0000CDB7DEB78A8319828A81282F30E03C83EF
:100F10002B838B819C818130910589F02B813C81D1
:100F200022303105A1F08B819C810097C1F4ABE5A3
:100F3000B0E0EBE5F0E080818F7B8C9312C0ABE5F5
:100F4000B0E0EBE5F0E080818F778C930AC0ABE5F1
:100F5000B0E0EBE5F0E080818F7D8C9302C081E012
:100F6000898389810F900F900F900F90CF91DF911F
:100F70000895DF93CF9300D000D0CDB7DEB79B8329
:100F80008A836C8319828A819B81009769F08C81A6
:100F9000882F90E0880F991FFC01EC54FF4F8A8145
:100FA0009B819183808302C082E0898389810F9035
:100FB0000F900F900F90CF91DF9108951F920F9295
:100FC0000FB60F9211242F933F934F935F936F931C
:100FD0007F938F939F93AF93BF93EF93FF93DF9391
:100FE000CF93CDB7DEB78091B4009091B500009754
:100FF00029F0E091B400F091B5000995CF91DF910F
:10100000FF91EF91BF91AF919F918F917F916F91E0
:101010005F914F913F912F910F900FBE0F901F90B6
:1010200018951F920F920FB60F9211242F933F9392
:101030004F935F936F937F938F939F93AF93BF93E0
:10104000EF93FF93DF93CF93CDB7DEB78091B600D8
:101050009091B700009729F0E091B600F091B700A9
:101060000995CF91DF91FF91EF91BF91AF919F9142
:101070008F917F916F915F914F913F912F910F9041
:101080000FBE0F901F9018951F920F920FB60F92E0
:1010900011242F933F934F935F936F937F938F937D
:1010A0009F93AF93BF93EF93FF93DF93CF93CDB70E
:1010B000DEB78091B8009091B900009729F0E091D7
:1010C000B800F091B9000995CF91DF91FF91EF91B0
:1010D000BF91AF919F918F917F916F915F914F9150
:1010E0003F912F910F900FBE0F901F901895DF9397
:1010F000CF93CDB7DEB728970FB6F894DEBF0FBEFB
:10110000CDBF8A836B834C8319828B81883008F032
:10111000F4C08C81813009F072C08A81282F30E0C0
:1011200038872F838F8198858130910549F12F81F0
:101130003885223031052CF48F819885009761F035
:101140005BC02F8138852230310571F18F81988500
:1011500083309105E9F150C0AAE3B0E0EAE3F0E0A2
:101160008081482F8B81282F30E081E090E0022E93
:1011700002C0880F991F0A94E2F7842B8C93BFC09A
:10118000A7E3B0E0E7E3F0E08081482F8B81282FD0
:1011900030E081E090E0022E02C0880F991F0A948F
:1011A000E2F7842B8C93ABC0A4E3B0E0E4E3F0E07F
:1011B0008081482F8B81282F30E081E090E0022E43
:1011C00002C0880F991F0A94E2F7842B8C9397C072
:1011D000A1E3B0E0E1E3F0E08081482F8B81282F8C
:1011E00030E081E090E0022E02C0880F991F0A943F
:1011F000E2F7842B8C9383C081E0898380C08C814B
:10120000882309F077C08A81282F30E03E832D8320
:101210008D819E818130910559F12D813E81223051
:1012200031052CF48D819E81009769F060C02D817D
:101230003E812230310589F18D819E818330910577
:1012400009F440C054C0AAE3B0E0EAE3F0E08081D2
:10125000482F8B81282F30E081E090E0022E02C0E1
:10126000880F991F0A94E2F7809584238C9347C0D6
:10127000A7E3B0E0E7E3F0E08081482F8B81282FDF
:1012800030E081E090E0022E02C0880F991F0A949E
:10129000E2F7809584238C9332C0A4E3B0E0E4E3CA
:1012A000F0E08081482F8B81282F30E081E090E0B2
:1012B000022E02C0880F991F0A94E2F780958423BA
:1012C0008C931DC0A1E3B0E0E1E3F0E08081482F02
:1012D0008B81282F30E081E090E0022E02C0880F41
:1012E000991F0A94E2F7809584238C9308C081E0CB
:1012F000898305C081E0898302C081E08983898177
:1013000028960FB6F894DEBF0FBECDBFCF91DF9108
:101310000895DF93CF9300D000D00F92CDB7DEB702
:101320008A836B8319828A81282F30E03D832C8346
:101330008C819D8181309105D1F02C813D812230BD
:1013400031052CF48C819D81009761F01FC02C81A8
:101350003D812230310581F08C819D818330910562
:1013600081F014C0EAE3F0E08B81808311C0E7E3F1
:10137000F0E08B8180830CC0E4E3F0E08B8180831C
:1013800007C0E1E3F0E08B81808302C081E08983C4
:1013900089810F900F900F900F900F90CF91DF9158
:1013A0000895DF93CF93CDB7DEB728970FB6F894A3
:1013B000DEBF0FBECDBF8A836B834C8319828B81C6
:1013C000883008F0F4C08C81813009F072C08A81C5
:1013D000282F30E038872F838F81988581309105C1
:1013E00049F12F813885223031052CF48F81988581
:1013F000009761F05BC02F8138852230310571F193
:101400008F81988583309105E9F150C0ABE3B0E05E
:10141000EBE3F0E08081482F8B81282F30E081E0E2
:1014200090E0022E02C0880F991F0A94E2F7842BE5
:101430008C93BFC0A8E3B0E0E8E3F0E08081482FE0
:101440008B81282F30E081E090E0022E02C0880FCF
:10145000991F0A94E2F7842B8C93ABC0A5E3B0E00C
:10146000E5E3F0E08081482F8B81282F30E081E098
:1014700090E0022E02C0880F991F0A94E2F7842B95
:101480008C9397C0A2E3B0E0E2E3F0E08081482FC4
:101490008B81282F30E081E090E0022E02C0880F7F
:1014A000991F0A94E2F7842B8C9383C081E089838F
:1014B00080C08C81882309F077C08A81282F30E092
:1014C0003E832D838D819E818130910559F12D813F
:1014D0003E81223031052CF48D819E81009769F088
:1014E00060C02D813E812230310589F18D819E8140
:1014F0008330910509F440C054C0ABE3B0E0EBE3A6
:10150000F0E08081482F8B81282F30E081E090E04F
:10151000022E02C0880F991F0A94E2F78095842357
:101520008C9347C0A8E3B0E0E8E3F0E08081482F67
:101530008B81282F30E081E090E0022E02C0880FDE
:10154000991F0A94E2F7809584238C9332C0A5E317
:10155000B0E0E5E3F0E08081482F8B81282F30E078
:1015600081E090E0022E02C0880F991F0A94E2F7F2
:10157000809584238C931DC0A2E3B0E0E2E3F0E009
:101580008081482F8B81282F30E081E090E0022E6F
:1015900002C0880F991F0A94E2F7809584238C93E8
:1015A00008C081E0898305C081E0898302C081E0B1
:1015B0008983898128960FB6F894DEBF0FBECDBF10
:1015C000CF91DF910895DF93CF9300D000D00F9299
:1015D000CDB7DEB78A836B8319828A81282F30E0EA
:1015E0003D832C838C819D8181309105D1F02C81AC
:1015F0003D81223031052CF48C819D81009761F072
:101600001FC02C813D812230310581F08C819D816C
:101610008330910581F014C0EBE3F0E08B8180838F
:1016200011C0E8E3F0E08B8180830CC0E5E3F0E0DB
:101630008B81808307C0E2E3F0E08B81808302C06E
:1016400081E0898389810F900F900F900F900F9008
:10165000CF91DF910895DF93CF93CDB7DEB7279772
:101660000FB6F894DEBF0FBECDBF8A836B835D8358
:101670004C8319828C819D81009709F477C08B81FE
:10168000883008F073C08A81282F30E03F832E8392
:101690004E815F814130510559F18E819F818230A9
:1016A000910534F42E813F812115310569F05CC02C
:1016B0004E815F814230510579F18E819F81833067
:1016C000910509F43DC050C0E9E3F0E08081282F86
:1016D00030E08B81882F90E0A90102C05595479595
:1016E0008A95E2F7CA018170EC81FD8180833EC05A
:1016F000E6E3F0E08081282F30E08B81882F90E0B6
:10170000A90102C0559547958A95E2F7CA018170F3
:10171000EC81FD8180832AC0E3E3F0E08081282F03
:1017200030E08B81882F90E0A90102C05595479544
:101730008A95E2F7CA018170EC81FD81808316C031
:10174000E0E3F0E08081282F30E08B81882F90E06B
:10175000A90102C0559547958A95E2F7CA018170A3
:10176000EC81FD81808302C081E089838981279695
:101770000FB6F894DEBF0FBECDBFCF91DF910895B5
:10178000DF93CF93CDB7DEB7A7E2B0E0E7E2F0E0BA
:10179000808180648C93A7E2B0E0E7E2F0E0808192
:1017A0008F778C93A7E2B0E0E7E2F0E080818F7D55
:1017B0008C93A6E2B0E0E6E2F0E080818F7D8C932E
:1017C000A6E2B0E0E6E2F0E08081887F8C93A6E2BA
:1017D000B0E0E6E2F0E0808187608C93A6E2B0E0C2
:1017E000E6E2F0E0808180688C93CF91DF910895EC
:1017F000DF93CF93CDB7DEB728970FB6F894DEBF4F
:101800000FBECDBF8E8378876F831D8219821A82A7
:101810001B821C828F819885009709F44AC08091B1
:10182000C100882309F042C081E08093C100A7E293
:10183000B0E0E7E2F0E08081807E8C93A7E2B0E048
:10184000E7E2F0E090818E81892B8C93A6E2B0E0F4
:10185000E6E2F0E0808180648C930BC089819A81FC
:10186000AB81BC810196A11DB11D89839A83AB8395
:10187000BC83E6E2F0E0808182958F70882F90E053
:1018800081709070009751F3A6E2B0E0E6E2F0E0DC
:10189000808180618C93E4E2F0E080819181EF812E
:1018A000F885918380831092C10005C084E08D8308
:1018B00002C081E08D838D8128960FB6F894DEBF3B
:1018C0000FBECDBFCF91DF910895DF93CF9300D0AE
:1018D00000D000D0CDB7DEB78A837C836B835E8374
:1018E0004D8319828B819C810097D1F18D819E81DE
:1018F0000097B1F18091C100882379F581E0809350
:10190000C1001092C2008B819C819093BB00809398
:10191000BA008D819E819093BD008093BC00A7E2A8
:10192000B0E0E7E2F0E08081807E8C93A7E2B0E057
:10193000E7E2F0E090818A81892B8C93A6E2B0E007
:10194000E6E2F0E0808188608C93A6E2B0E0E6E217
:10195000F0E0808180648C9305C084E0898302C0BC
:1019600082E08983898126960FB6F894DEBF0FBE88
:10197000CDBFCF91DF910895DF93CF93CDB7DEB781
:10198000A7E2B0E0E7E2F0E08081807E8C93A7E2FE
:10199000B0E0E7E2F0E080818C93A6E2B0E0E6E21E
:1019A000F0E0808180648C93CF91DF910895DF9384
:1019B000CF9300D00F92CDB7DEB79B838A83198275
:1019C0008A819B81009709F465C08A819B81009779
:1019D00009F460C08A819B810896009709F45AC077
:1019E000EA81FB81818D928D009709F453C080912B
:1019F000C100882309F04BC081E08093C10081E0E1
:101A00008093C2008A819B819093BF008093BE0027
:101A10008A819B8108969093BB008093BA00EA81EB
:101A2000FB81808D8093C000EA81FB81818D928D46
:101A30009093BD008093BC001092C300A7E2B0E079
:101A4000E7E2F0E08081807E8C93A7E2B0E0E7E2FD
:101A5000F0E040812091BE003091BF008091C30032
:101A6000882F90E0F901E80FF91F8081842B8C9377
:101A7000A6E2B0E0E6E2F0E0808188608C93A6E226
:101A8000B0E0E6E2F0E0808180648C9305C084E001
:101A9000898302C082E0898389810F900F900F9023
:101AA000CF91DF910895DF93CF93CDB7DEB7A6E254
:101AB000B0E0E6E2F0E0808188608C93CF91DF9126
:101AC0000895DF93CF93CDB7DEB7A6E2B0E0E6E2AC
:101AD000F0E08081877F8C93CF91DF9108951F92F2
:101AE0000F920FB60F9211242F933F934F935F9352
:101AF0006F937F938F939F93AF93BF93EF93FF93D6
:101B0000DF93CF93CDB7DEB78091C200882309F56C
:101B1000A091BA00B091BB00E4E2F0E08081918135
:101B200011969C938E931092C100A6E2B0E0E6E27B
:101B3000F0E08081877F8C938091BC009091BD0004
:101B4000009709F45BC0E091BC00F091BD000995DD
:101B500055C02091BA003091BB008091C300882FFE
:101B600090E0880F991FD901A80FB91FE4E2F0E0B7
:101B70008081918111969C938E938091C3008F5F99
:101B80008093C3009091C3008091C0009817A9F47E
:101B90001092C100A6E2B0E0E6E2F0E08081877F2B
:101BA0008C938091BC009091BD00009739F1E09139
:101BB000BC00F091BD00099521C0A7E2B0E0E7E2CA
:101BC000F0E08081807E8C93A7E2B0E0E7E2F0E075
:101BD00040812091BE003091BF008091C300882FCA
:101BE00090E0F901E80FF91F8081842B8C93A6E225
:101BF000B0E0E6E2F0E0808180648C93CF91DF91E9
:101C0000FF91EF91BF91AF919F918F917F916F91D4
:101C10005F914F913F912F910F900FBE0F901F90AA
:101C20001895DF93CF93CDB7DEB72F970FB6F89403
:101C3000DEBF0FBECDBF8F8781E065E040E00E9430
:101C4000D10981E066E040E00E94D10982E06F8521
:101C50000E94E30A81E067E041E00E94D10980E050
:101C600090E0A0E0B0E48B879C87AD87BE876B8552
:101C70007C858D859E8520E030E04AEF54E40E940B
:101C80001F02DC01CB018F839887A987BA876F81F8
:101C9000788589859A8520E030E040E85FE30E94FE
:101CA000790388232CF481E090E09E838D833FC0EC
:101CB0006F81788589859A8520E03FEF4FE757E46B
:101CC0000E94190318164CF56B857C858D859E85C1
:101CD00020E030E040E251E40E941F02DC01CB0131
:101CE000BC01CD010E944900DC01CB019E838D83A4
:101CF0000FC088EC90E09C838B838B819C81019743
:101D0000F1F79C838B838D819E8101979E838D83C8
:101D10008D819E81009769F714C06F8178858985D0
:101D20009A850E944900DC01CB019E838D838D81C1
:101D30009E819A83898389819A810197F1F79A8399
:101D4000898381E067E040E00E94D1092F960FB6B9
:101D5000F894DEBF0FBECDBFCF91DF910895DF9322
:101D6000CF93CDB7DEB72F970FB6F894DEBF0FBE77
:101D7000CDBF8F8781E065E041E00E94D10981E01D
:101D800066E040E00E94D10982E06F850E94E30A8C
:101D900081E067E041E00E94D10980E090E0A0E0AE
:101DA000B0E48B879C87AD87BE876B857C858D85EE
:101DB0009E8520E030E04AEF54E40E941F02DC01DF
:101DC000CB018F839887A987BA876F8178858985AA
:101DD0009A8520E030E040E85FE30E9479038823A1
:101DE0002CF481E090E09E838D833FC06F817885E5
:101DF00089859A8520E03FEF4FE757E40E94190359
:101E000018164CF56B857C858D859E8520E030E02D
:101E100040E251E40E941F02DC01CB01BC01CD0174
:101E20000E944900DC01CB019E838D830FC088ECAA
:101E300090E09C838B838B819C810197F1F79C833D
:101E40008B838D819E8101979E838D838D819E8161
:101E5000009769F714C06F81788589859A850E94FB
:101E60004900DC01CB019E838D838D819E819A8305
:101E7000898389819A810197F1F79A83898381E027
:101E800067E040E00E94D1092F960FB6F894DEBFBC
:101E90000FBECDBFCF91DF910895DF93CF93CDB724
:101EA000DEB72E970FB6F894DEBF0FBECDBF80E031
:101EB00090E0A0E2B2E48B879C87AD87BE876B85FC
:101EC0007C858D859E8520E030E04AEF54E40E94B9
:101ED0001F02DC01CB018F839887A987BA876F81A6
:101EE000788589859A8520E030E040E85FE30E94AC
:101EF000790388232CF481E090E09E838D833FC09A
:101F00006F81788589859A8520E03FEF4FE757E418
:101F10000E94190318164CF56B857C858D859E856E
:101F200020E030E040E251E40E941F02DC01CB01DE
:101F3000BC01CD010E944900DC01CB019E838D8351
:101F40000FC088EC90E09C838B838B819C810197F0
:101F5000F1F79C838B838D819E8101979E838D8376
:101F60008D819E81009769F714C06F81788589857E
:101F70009A850E944900DC01CB019E838D838D816F
:101F80009E819A83898389819A810197F1F79A8347
:101F9000898388E30E94110E8CE00E94110E81E07B
:101FA0000E94110E2E960FB6F894DEBF0FBECDBF65
:101FB000CF91DF910895DF93CF9300D00F92CDB7EB
:101FC000DEB78A836B838B81882F90E000249695FF
:101FD00087950794969587950794982F802D982F2D
:101FE0008A81890F8983898180580E94110E0F9000
:101FF0000F900F90CF91DF910895DF93CF93CDB7DE
:10200000DEB727970FB6F894DEBF0FBECDBF9C8317
:102010008B836D834E832F838D81882F90E0880F73
:10202000991F880F991F880F991F8A838A81805C66
:102030000E94110E19820EC08981282F30E08B81F9
:102040009C81FC01E20FF31F80810E94AF0E898109
:102050008F5F89838981883078F38E816F810E94B8
:10206000DB0F8D810E94AF0E27960FB6F894DEBF6E
:102070000FBECDBFCF91DF910895DF93CF9300D0F6
:102080000F92CDB7DEB79B838A8319820EC08981F8
:10209000282F30E08A819B81FC01E20FF31F8081B1
:1020A0000E94AF0E89818F5F89838981282F30E05C
:1020B0008A819B81FC01E20FF31F8081882339F71D
:1020C0000F900F900F90CF91DF910895DF93CF93F2
:1020D000CDB7DEB767970FB6F894DEBF0FBECDBFA2
:1020E0009F8B8E8B84E1FE013296DF01982F1D922B
:1020F0009A95E9F719828E899F89009749F580E3BF
:102100000E94AF0E41C08981E82FF0E08E899F893F
:102110002AE030E0B9010E94AD15AC01405D5F4F8F
:102120009F01220F331FCE010196820F931FFC01E6
:102130003196518340838E899F892AE030E0B9012E
:102140000E94AD15CB019F8B8E8B89818F5F898318
:102150008E899F890097B9F614C08981882F90E0F5
:1021600001979C01220F331FCE010196820F931F0E
:10217000FC013196808191810E94AF0E898181504E
:1021800089838981882349F767960FB6F894DEBF63
:102190000FBECDBFCF91DF910895DF93CF93CDB721
:1021A000DEB72E970FB6F894DEBF0FBECDBF0E94EC
:1021B000A3050E94C00B0E94E3050E94FF050E9438
:1021C0001B060E944D0F0E94C7051092CC0081E0B3
:1021D0008093CD0082E08093CE0083E08093E40082
:1021E00089EA91E19093E6008093E5008FEC93E11A
:1021F00060E00E94B90784E694E161E00E94B907BB
:1022000089EF94E162E00E94B90780E060E00E94FB
:10221000DB0F80E690E00E943D1080E090E0AAEFA6
:10222000B4E48B879C87AD87BE876B857C858D8565
:102230009E8520E030E04AEF54E40E941F02DC015A
:10224000CB018F839887A987BA876F817885898525
:102250009A8520E030E040E85FE30E94790388231C
:102260002CF481E090E09E838D833FC06F81788560
:1022700089859A8520E03FEF4FE757E40E941903D4
:1022800018164CF56B857C858D859E8520E030E0A9
:1022900040E251E40E941F02DC01CB01BC01CD01F0
:1022A0000E944900DC01CB019E838D830FC088EC26
:1022B00090E09C838B838B819C810197F1F79C83B9
:1022C0008B838D819E8101979E838D838D819E81DD
:1022D000009769F714C06F81788589859A850E9477
:1022E0004900DC01CB019E838D838D819E819A8381
:1022F000898389819A810197F1F79A8389838CEC8C
:1023000090E00E94D70C8091C6009091C7008F3159
:10231000910528F083E060E040E00E94D1098091BF
:10232000C8009091C9008B30910528F083E061E0EE
:1023300040E00E94D1098091CA009091CB00843086
:10234000910508F462CF83E064E040E00E94D10987
:102350005CCFDF93CF93CDB7DEB7AA970FB6F894D3
:10236000DEBF0FBECDBF8091D4009091D500CC01CF
:10237000A0E0B0E028E833E140E050E0BC01CD014E
:102380000E948E15DC01CB012FEF33E040E050E0DE
:10239000BC01CD010E94C115DA01C9019093C500AD
:1023A0008093C4008091C4009091C5002AE030E081
:1023B000B9010E94AD15CB019093C7008093C60070
:1023C0008091D6009091D700CC01A0E0B0E028E841
:1023D00033E140E050E0BC01CD010E948E15DC01EC
:1023E000CB012FEF33E040E050E0BC01CD010E9473
:1023F000C115DA01C9019093C5008093C400809192
:10240000C4009091C50024E630E0B9010E94AD15EA
:10241000CB019093C9008093C8008091D80090911F
:10242000D900CC01A0E0B0E028E833E140E050E082
:10243000BC01CD010E948E15DC01CB012FEF33E0F2
:1024400040E050E0BC01CD010E94C115DA01C90194
:102450009093C5008093C4008091C4009091C50002
:1024600028EE33E0B9010E94AD15CB019093CB006B
:102470008093CA0081E00E94110E80E060E00E941B
:10248000DB0F88E690E00E943D108091C60090919D
:10249000C7000E94661080E090E0AAEFB4E48FA32A
:1024A00098A7A9A7BAA76FA178A589A59AA520E0A2
:1024B00030E04AEF54E40E941F02DC01CB018BA301
:1024C0009CA3ADA3BEA36BA17CA18DA19EA120E086
:1024D00030E040E85FE30E94790388232CF481E038
:1024E00090E09AA389A33FC06BA17CA18DA19EA17E
:1024F00020E03FEF4FE757E40E94190318164CF510
:102500006FA178A589A59AA520E030E040E251E4CA
:102510000E941F02DC01CB01BC01CD010E944900D9
:10252000DC01CB019AA389A30FC088EC90E098A3AB
:102530008F8F8F8D98A10197F1F798A38F8F89A125
:102540009AA101979AA389A389A19AA1009769F7F3
:1025500014C06BA17CA18DA19EA10E944900DC0149
:10256000CB019AA389A389A19AA19E8F8D8F8D8D6E
:102570009E8D0197F1F79E8F8D8F81E00E94110E45
:1025800080E060E00E94DB0F81E790E00E943D1058
:102590008091C8009091C9000E94661080E090E090
:1025A000AAEFB4E4898F9A8FAB8FBC8F698D7A8D37
:1025B0008B8D9C8D20E030E04AEF54E40E941F0296
:1025C000DC01CB018D8B9E8BAF8BB88F6D897E89A3
:1025D0008F89988D20E030E040E85FE30E94790326
:1025E00088232CF481E090E09C8B8B8B3FC06D891D
:1025F0007E898F89988D20E03FEF4FE757E40E9456
:10260000190318164CF5698D7A8D8B8D9C8D20E001
:1026100030E040E251E40E941F02DC01CB01BC012A
:10262000CD010E944900DC01CB019C8B8B8B0FC03C
:1026300088EC90E09A8B898B89899A890197F1F7C8
:102640009A8B898B8B899C8901979C8B8B8B8B892F
:102650009C89009769F714C06D897E898F89988D50
:102660000E944900DC01CB019C8B8B8B8B899C8960
:10267000988B8F878F8598890197F1F7988B8F8733
:1026800081E00E94110E80E060E00E94DB0F8BE78A
:1026900090E00E943D108091CA009091CB000E9472
:1026A000661080E090E0AAEFB4E48B879C87AD874A
:1026B000BE876B857C858D859E8520E030E04AEF66
:1026C00054E40E941F02DC01CB018F839887A98705
:1026D000BA876F81788589859A8520E030E040E867
:1026E0005FE30E94790388232CF481E090E09E83CD
:1026F0008D833FC06F81788589859A8520E03FEF83
:102700004FE757E40E94190318164CF56B857C853A
:102710008D859E8520E030E040E251E40E941F025A
:10272000DC01CB01BC01CD010E944900DC01CB01E1
:102730009E838D830FC088EC90E09C838B838B817C
:102740009C810197F1F79C838B838D819E810197FA
:102750009E838D838D819E81009769F714C06F8160
:10276000788589859A850E944900DC01CB019E838A
:102770008D838D819E819A83898389819A81019736
:10278000F1F79A83898381E00E94110EAA960FB611
:10279000F894DEBF0FBECDBFCF91DF910895DF93D8
:1027A000CF93CDB7DEB72E970FB6F894DEBF0FBE2E
:1027B000CDBF81E00E94110E80E060E00E94DB0F3F
:1027C00087E890E00E943D1080E090E0AAEFB4E43A
:1027D0008B879C87AD87BE876B857C858D859E8525
:1027E00020E030E04AEF54E40E941F02DC01CB01FC
:1027F0008F839887A987BA876F81788589859A851D
:1028000020E030E040E85FE30E94790388232CF465
:1028100081E090E09E838D833FC06F8178858985BC
:102820009A8520E03FEF4FE757E40E9419031816FE
:102830004CF56B857C858D859E8520E030E040E2FF
:1028400051E40E941F02DC01CB01BC01CD010E94BA
:102850004900DC01CB019E838D830FC088EC90E0A2
:102860009C838B838B819C810197F1F79C838B8365
:102870008D819E8101979E838D838D819E8100979E
:1028800069F714C06F81788589859A850E9449000F
:10289000DC01CB019E838D838D819E819A83898308
:1028A00089819A810197F1F79A83898383E060E0B7
:1028B00041E00E94D1092E960FB6F894DEBF0FBEFC
:1028C000CDBFCF91DF910895DF93CF93CDB7DEB722
:1028D0002E970FB6F894DEBF0FBECDBF81E00E94E9
:1028E000110E80E060E00E94DB0F84E990E00E941E
:1028F0003D1080E090E0AAEFB4E48B879C87AD8721
:10290000BE876B857C858D859E8520E030E04AEF13
:1029100054E40E941F02DC01CB018F839887A987B2
:10292000BA876F81788589859A8520E030E040E814
:102930005FE30E94790388232CF481E090E09E837A
:102940008D833FC06F81788589859A8520E03FEF30
:102950004FE757E40E94190318164CF56B857C85E8
:102960008D859E8520E030E040E251E40E941F0208
:10297000DC01CB01BC01CD010E944900DC01CB018F
:102980009E838D830FC088EC90E09C838B838B812A
:102990009C810197F1F79C838B838D819E810197A8
:1029A0009E838D838D819E81009769F714C06F810E
:1029B000788589859A850E944900DC01CB019E8338
:1029C0008D838D819E819A83898389819A810197E4
:1029D000F1F79A83898383E061E041E00E94D109A5
:1029E0002E960FB6F894DEBF0FBECDBFCF91DF910C
:1029F0000895DF93CF93CDB7DEB72E970FB6F89437
:102A0000DEBF0FBECDBF81E00E94110E80E060E00E
:102A10000E94DB0F8FE990E00E943D1080E090E083
:102A2000AAEFB4E48B879C87AD87BE876B857C85D6
:102A30008D859E8520E030E04AEF54E40E941F021D
:102A4000DC01CB018F839887A987BA876F8178854E
:102A500089859A8520E030E040E85FE30E947903B1
:102A600088232CF481E090E09E838D833FC06F81AA
:102A7000788589859A8520E03FEF4FE757E40E94EB
:102A8000190318164CF56B857C858D859E8520E095
:102A900030E040E251E40E941F02DC01CB01BC01A6
:102AA000CD010E944900DC01CB019E838D830FC0C4
:102AB00088EC90E09C838B838B819C810197F1F75C
:102AC0009C838B838D819E8101979E838D838D81D5
:102AD0009E81009769F714C06F81788589859A85F2
:102AE0000E944900DC01CB019E838D838D819E81F4
:102AF0009A83898389819A810197F1F79A838983DF
:102B000083E064E041E00E94D1092E960FB6F8946C
:102B1000DEBF0FBECDBFCF91DF910895629FD00180
:102B2000739FF001829FE00DF11D649FE00DF11D88
:102B3000929FF00D839FF00D749FF00D659FF00D37
:102B40009927729FB00DE11DF91F639FB00DE11D24
:102B5000F91FBD01CF0111240895AA1BBB1B51E130
:102B600007C0AA1FBB1FA617B70710F0A61BB70BFD
:102B7000881F991F5A95A9F780959095BC01CD01A2
:102B80000895A1E21A2EAA1BBB1BFD010DC0AA1FAE
:102B9000BB1FEE1FFF1FA217B307E407F50720F0C6
:102BA000A21BB30BE40BF50B661F771F881F991F41
:102BB0001A9469F760957095809590959B01AC018A
:102BC000BD01CF0108952F923F924F925F926F9275
:102BD0007F928F929F92AF92BF92CF92DF92EF92AD
:102BE000FF920F931F93CF93DF93CDB7DEB7CA1B2E
:102BF000DB0B0FB6F894DEBF0FBECDBF09942A8859
:102C0000398848885F846E847D848C849B84AA8400
:102C1000B984C884DF80EE80FD800C811B81AA818D
:102C2000B981CE0FD11D0FB6F894DEBF0FBECDBF58
:082C3000ED010895F894FFCFB7
:102C380057616974696E670054656D702069732007
:102C4800004C696768742069732000566F6C746162
:102C5800676520697320005761726E696E6720543A
:102C6800656D700048696768204C6967687400483A
:102C780069676820566F6C74616765000000000022
:042C88000000000048
:00000001FF
